7
8  
9  SSH-TRANS
10  10.10.0.40
11  172.16.82.106
You are on this workstation as Jose Cuervo, a local strongman. 
You have the ability to execute commands on this Pineland workstation as an actor for Pineland. 
Jose has a friend in Atropia that has provided him with the ability to SSH to the Allies' pivot point.
You (Jose) should look into providing intel on other interesting workstations in the area controlled by Keith Mohammand, a wanted terrorist. 
Those workstations are not directly reachable from Atropia, but are on the same subnet as Jose's workstation which may be used to exfiltrate information. 
Jose also has a flag that can be found by using the find command on his system. The directory where the flag is found has been commonly used throughout the network.



You have accessed the Atlantica government server. 
There is nothing interesting on this server, however, it used to have access to the 10.4.0.0/24 and 10.5.0.0/24 networks until the admins shut it down.
Try to access those networks through another way.



You have accessed tunnels-training-baja-republic-pivot at  via login. Good job. 
There are no other devices of interest in this subnet, but this device has access to another network that only it can access. Give it a try!








20:11:03.491298 IP 172.16.0.90 > 172.16.0.100: ICMP echo request, id 855, seq 1, length 64
	0x0000:  4500 0054 27b8 4000 4001 ba12 ac10 005a  E..T'.@.@......Z
	0x0010:  ac10 0064 0800 f187 0357 0001 5710 da66  ...d.....W..W..f
	0x0020:  0000 0000 2d78 0200 0000 0000 badb eef5  ....-x..........
	0x0030:  badb eef5 badb eef5 badb eef5 badb eef5  ................
	0x0040:  badb eef5 badb eef5 badb eef5 badb eef5  ................
	0x0050:  badb eef5                                ....
20:11:03.491354 IP 172.16.0.100 > 172.16.0.90: ICMP echo reply, id 855, seq 1, length 64
	0x0000:  4500 0054 8e14 0000 4001 93b6 ac10 0064  E..T....@......d
	0x0010:  ac10 005a 0000 f987 0357 0001 5710 da66  ...Z.....W..W..f
	0x0020:  0000 0000 2d78 0200 0000 0000 badb eef5  ....-x..........
	0x0030:  badb eef5 badb eef5 badb eef5 badb eef5  ................
	0x0040:  badb eef5 badb eef5 badb eef5 badb eef5  ................
	0x0050:  badb eef5                                ....






us
10.10.0.40/27
10.50.26.79



T3 = 10.3.0.10/24
float = 10.50.41.243
ssh net2_student4@10.50.41.243

T4 = 10.2.0.1/24
float = 10.50.39.228


T5 = 192.168.0.10
float = 10.50.42.86


SSH2 = 192.168.0.20/24

net2_comrade4:privet4

# tunnel to SSH2
ssh student@10.50.26.79 -R 20499:127.0.0.1:22 -NT
ssh net2_student4@127.0.0.1 -p 20499 -L 20411:192.168.0.20:3333 -NT


ssh net2_student4@127.0.0.1 -p 20499 -L 20411:192.168.0.20:3333 -NT


#callback to ssh4
ssh net2_student4@127.0.0.1 -p 20412 -L 20413:172.16.0.60:23 -NT
ssh net2_student4@192.168.0.40 -p 5555 -R 20498:127.0.0.1:22 -NT
ssh net2_student4@127.0.0.1 -p 20413 -L 20414:127.0.0.1:20498 -NT
ssh net2_comrade4@127.0.0.1 -p 20414 -L 20415:172.16.0.90:2222 -NT
ssh net2_comrade4@127.0.0.1 -p 20415 -L 20416:172.16.0.100:23 -NT
ssh net2_comrade4@172.16.0.90 -R 20497:127.0.0.1:22 -NT
ssh net2_comrade4@127.0.0.1 -p 20415 -L 20417:127.0.0.1:20497 -NT

ssh net2_student4@

ssh net2_student4@127.0.0.1 -p 20401
ssh net2_student4@10.2.0.3

# current tunnels
ssh net2_student4@10.3.0.10 -R 20499:127.0.0.1:22 -NT
ssh net2_student4@10.50.41.243 -L 20401:127.0.0.1:20499 -NT

ssh net2_student4@127.0.0.1 -p 20401 -L 20402:10.2.0.3:22 -NT

# moving tunnels for mojave
ssh net2_student4@10.50.41.243 -L 20403:10.4.0.1:22 -NT
ssh net2_student4@127.0.0.1 -p 20403 -L 20404:10.5.0.1:22 -NT

# closed
ssh net2_student4@127.0.0.1 -p 20401 -L 20402:10.2.0.2:80 -NT







ssh net2_student4@10.50.41.243 -D 9050 -NT







ssh -R 4444:localhost:22 cctc@192.168.2.1 -NT












net2_student4@
ssh net2_student4@127.0.0.1 -p -D 9050 -NT



ssh net2_student4@10.10.0.40 -R 20489:127.0.0.1:22 -NT


ssh net2_student4@127.0.0.1 -p 20489 -L 20488:10.1.2.18:2222 -NT
ssh net2_student4@127.0.0.1 -p 20488 -L 20487:172.16.10.121:2323 -NT
ssh net2_student4@127.0.0.1 -p 20487 -L 20486:192.168.10.69:22 -NT






ssh net2_student4@127.0.0.1 -p 2048X -D 9050 -NT











